{
  "address": "0xAb0320cDc3712edCc8F031D2fa617AbBA3245010",
  "abi": [
    {
      "inputs": [],
      "stateMutability": "nonpayable",
      "type": "constructor"
    },
    {
      "anonymous": false,
      "inputs": [
        {
          "indexed": true,
          "internalType": "address",
          "name": "_player",
          "type": "address"
        },
        {
          "indexed": false,
          "internalType": "uint256",
          "name": "_deposit",
          "type": "uint256"
        },
        {
          "indexed": false,
          "internalType": "uint256",
          "name": "_choice",
          "type": "uint256"
        },
        {
          "indexed": false,
          "internalType": "uint256",
          "name": "_result",
          "type": "uint256"
        },
        {
          "indexed": false,
          "internalType": "uint256",
          "name": "_prize",
          "type": "uint256"
        },
        {
          "indexed": true,
          "internalType": "enum CoinFlip.Status",
          "name": "status",
          "type": "uint8"
        }
      ],
      "name": "GameFinished",
      "type": "event"
    },
    {
      "anonymous": false,
      "inputs": [
        {
          "indexed": true,
          "internalType": "address",
          "name": "previousOwner",
          "type": "address"
        },
        {
          "indexed": true,
          "internalType": "address",
          "name": "newOwner",
          "type": "address"
        }
      ],
      "name": "OwnershipTransferred",
      "type": "event"
    },
    {
      "inputs": [
        {
          "internalType": "uint256",
          "name": "_amount",
          "type": "uint256"
        }
      ],
      "name": "burn",
      "outputs": [],
      "stateMutability": "nonpayable",
      "type": "function"
    },
    {
      "inputs": [
        {
          "internalType": "uint256",
          "name": "_coef",
          "type": "uint256"
        }
      ],
      "name": "changeCoef",
      "outputs": [],
      "stateMutability": "nonpayable",
      "type": "function"
    },
    {
      "inputs": [
        {
          "internalType": "uint256",
          "name": "_minDepositAmount",
          "type": "uint256"
        },
        {
          "internalType": "uint256",
          "name": "_maxDepositAmount",
          "type": "uint256"
        }
      ],
      "name": "changeMaxMinBet",
      "outputs": [],
      "stateMutability": "nonpayable",
      "type": "function"
    },
    {
      "inputs": [],
      "name": "coef",
      "outputs": [
        {
          "internalType": "uint256",
          "name": "",
          "type": "uint256"
        }
      ],
      "stateMutability": "view",
      "type": "function"
    },
    {
      "inputs": [
        {
          "internalType": "uint256",
          "name": "",
          "type": "uint256"
        }
      ],
      "name": "games",
      "outputs": [
        {
          "internalType": "address",
          "name": "player",
          "type": "address"
        },
        {
          "internalType": "uint256",
          "name": "depositAmount",
          "type": "uint256"
        },
        {
          "internalType": "uint256",
          "name": "choice",
          "type": "uint256"
        },
        {
          "internalType": "uint256",
          "name": "result",
          "type": "uint256"
        },
        {
          "internalType": "uint256",
          "name": "prize",
          "type": "uint256"
        },
        {
          "internalType": "enum CoinFlip.Status",
          "name": "status",
          "type": "uint8"
        }
      ],
      "stateMutability": "view",
      "type": "function"
    },
    {
      "inputs": [],
      "name": "maxDepositAmount",
      "outputs": [
        {
          "internalType": "uint256",
          "name": "",
          "type": "uint256"
        }
      ],
      "stateMutability": "view",
      "type": "function"
    },
    {
      "inputs": [],
      "name": "minDepositAmount",
      "outputs": [
        {
          "internalType": "uint256",
          "name": "",
          "type": "uint256"
        }
      ],
      "stateMutability": "view",
      "type": "function"
    },
    {
      "inputs": [
        {
          "internalType": "uint256",
          "name": "_amount",
          "type": "uint256"
        }
      ],
      "name": "mint",
      "outputs": [],
      "stateMutability": "nonpayable",
      "type": "function"
    },
    {
      "inputs": [],
      "name": "owner",
      "outputs": [
        {
          "internalType": "address",
          "name": "",
          "type": "address"
        }
      ],
      "stateMutability": "view",
      "type": "function"
    },
    {
      "inputs": [
        {
          "internalType": "uint256",
          "name": "_depositAmount",
          "type": "uint256"
        },
        {
          "internalType": "uint256",
          "name": "_choice",
          "type": "uint256"
        }
      ],
      "name": "play",
      "outputs": [],
      "stateMutability": "payable",
      "type": "function"
    },
    {
      "inputs": [
        {
          "internalType": "uint256",
          "name": "_choice",
          "type": "uint256"
        }
      ],
      "name": "playWithEthereum",
      "outputs": [],
      "stateMutability": "payable",
      "type": "function"
    },
    {
      "inputs": [],
      "name": "profit",
      "outputs": [
        {
          "internalType": "uint256",
          "name": "",
          "type": "uint256"
        }
      ],
      "stateMutability": "view",
      "type": "function"
    },
    {
      "inputs": [],
      "name": "renounceOwnership",
      "outputs": [],
      "stateMutability": "nonpayable",
      "type": "function"
    },
    {
      "inputs": [],
      "name": "token",
      "outputs": [
        {
          "internalType": "contract GameToken",
          "name": "",
          "type": "address"
        }
      ],
      "stateMutability": "view",
      "type": "function"
    },
    {
      "inputs": [],
      "name": "totalGamesCount",
      "outputs": [
        {
          "internalType": "uint256",
          "name": "",
          "type": "uint256"
        }
      ],
      "stateMutability": "view",
      "type": "function"
    },
    {
      "inputs": [
        {
          "internalType": "address",
          "name": "newOwner",
          "type": "address"
        }
      ],
      "name": "transferOwnership",
      "outputs": [],
      "stateMutability": "nonpayable",
      "type": "function"
    },
    {
      "inputs": [
        {
          "internalType": "uint256",
          "name": "_amount",
          "type": "uint256"
        }
      ],
      "name": "withdraw",
      "outputs": [],
      "stateMutability": "nonpayable",
      "type": "function"
    }
  ],
  "transactionHash": "0x7fa11beb5738b05238787b52cae1e7250863706ef944f5c7aac19626f035cd64",
  "args": [],
  "numDeployments": 1,
  "solcInputHash": "d03a8fdc411307d44dea04f003fd5847",
  "bytecode": "0x60806040523480156200001157600080fd5b506200003262000026620000c360201b60201c565b620000cb60201b60201c565b6064600381905550670de0b6b3a764000060048190555060405162000057906200018f565b604051809103906000f08015801562000074573d6000803e3d6000fd5b50600660006101000a81548173ffffffffffffffffffffffffffffffffffffffff021916908373ffffffffffffffffffffffffffffffffffffffff16021790555060c36001819055506200019d565b600033905090565b60008060009054906101000a900473ffffffffffffffffffffffffffffffffffffffff169050816000806101000a81548173ffffffffffffffffffffffffffffffffffffffff021916908373ffffffffffffffffffffffffffffffffffffffff1602179055508173ffffffffffffffffffffffffffffffffffffffff168173ffffffffffffffffffffffffffffffffffffffff167f8be0079c531659141344cd1fd0a4f28419497f9722a3daafe3b4186f6b6457e060405160405180910390a35050565b6119ba80620023fe83390190565b61225180620001ad6000396000f3fe6080604052600436106100fe5760003560e01c8063715018a611610095578063a0712d6811610064578063a0712d68146102e6578063eef2bb8e1461030f578063f2fde38b14610338578063f593a38714610361578063fc0c546a1461038c576100fe565b8063715018a61461025d5780637bc49a95146102745780638da5cb5b146102905780638ed83271146102bb576100fe565b806342966c68116100d157806342966c68146101b557806357b52ebb146101de578063645006ca1461020757806366d16cc314610232576100fe565b806307cbd37014610103578063117a5b901461011f5780632e1a7d4d146101615780633afd4b5e1461018a575b600080fd5b61011d6004803603810190610118919061172b565b6103b7565b005b34801561012b57600080fd5b506101466004803603810190610141919061172b565b610877565b6040516101589695949392919061181f565b60405180910390f35b34801561016d57600080fd5b506101886004803603810190610183919061172b565b6108e0565b005b34801561019657600080fd5b5061019f610a88565b6040516101ac9190611880565b60405180910390f35b3480156101c157600080fd5b506101dc60048036038101906101d7919061172b565b610a8e565b005b3480156101ea57600080fd5b506102056004803603810190610200919061172b565b610b20565b005b34801561021357600080fd5b5061021c610b81565b6040516102299190611880565b60405180910390f35b34801561023e57600080fd5b50610247610b87565b6040516102549190611880565b60405180910390f35b34801561026957600080fd5b50610272610b8d565b005b61028e6004803603810190610289919061189b565b610ba1565b005b34801561029c57600080fd5b506102a56113d9565b6040516102b291906118db565b60405180910390f35b3480156102c757600080fd5b506102d0611402565b6040516102dd9190611880565b60405180910390f35b3480156102f257600080fd5b5061030d6004803603810190610308919061172b565b611408565b005b34801561031b57600080fd5b506103366004803603810190610331919061189b565b61149a565b005b34801561034457600080fd5b5061035f600480360381019061035a9190611922565b6114f6565b005b34801561036d57600080fd5b5061037661157a565b6040516103839190611880565b60405180910390f35b34801561039857600080fd5b506103a1611580565b6040516103ae91906119ae565b60405180910390f35b600034116103fa576040517f08c379a00000000000000000000000000000000000000000000000000000000081526004016103f190611a26565b60405180910390fd5b60018114806104095750600081145b610448576040517f08c379a000000000000000000000000000000000000000000000000000000000815260040161043f90611a92565b60405180910390fd5b3447101561048b576040517f08c379a000000000000000000000000000000000000000000000000000000000815260040161048290611afe565b60405180910390fd5b600354341015801561049f57506004543411155b6104de576040517f08c379a00000000000000000000000000000000000000000000000000000000081526004016104d590611b6a565b60405180910390fd5b60006040518060c001604052803373ffffffffffffffffffffffffffffffffffffffff168152602001348152602001838152602001600081526020016000815260200160006002811115610535576105346117a8565b5b815250905060006002436105499190611bb9565b9050828114156106bd578082606001818152505060018260a001906002811115610576576105756117a8565b5b9081600281111561058a576105896117a8565b5b8152505060646001543461059e9190611c19565b6105a89190611c73565b826080018181525050816000015173ffffffffffffffffffffffffffffffffffffffff166108fc83608001519081150290604051600060405180830381858888f193505050501580156105ff573d6000803e3d6000fd5b508160076000600254815260200190815260200160002060008201518160000160006101000a81548173ffffffffffffffffffffffffffffffffffffffff021916908373ffffffffffffffffffffffffffffffffffffffff1602179055506020820151816001015560408201518160020155606082015181600301556080820151816004015560a08201518160050160006101000a81548160ff021916908360028111156106b0576106af6117a8565b5b02179055509050506107d9565b8082606001818152505060028260a0019060028111156106e0576106df6117a8565b5b908160028111156106f4576106f36117a8565b5b8152505060008260800181815250508160200151600560008282546107199190611ca4565b925050819055508160076000600254815260200190815260200160002060008201518160000160006101000a81548173ffffffffffffffffffffffffffffffffffffffff021916908373ffffffffffffffffffffffffffffffffffffffff1602179055506020820151816001015560408201518160020155606082015181600301556080820151816004015560a08201518160050160006101000a81548160ff021916908360028111156107d0576107cf6117a8565b5b02179055509050505b6001600260008282546107ec9190611ca4565b925050819055508160a00151600281111561080a576108096117a8565b5b826000015173ffffffffffffffffffffffffffffffffffffffff167fd34f52a7b1f8fb6116e944d8c7d3b63e08814c36db58a673443de663e51314a5846020015185604001518660600151876080015160405161086a9493929190611cfa565b60405180910390a3505050565b60076020528060005260406000206000915090508060000160009054906101000a900473ffffffffffffffffffffffffffffffffffffffff16908060010154908060020154908060030154908060040154908060050160009054906101000a900460ff16905086565b6108e86115a6565b80600660009054906101000a900473ffffffffffffffffffffffffffffffffffffffff1673ffffffffffffffffffffffffffffffffffffffff166370a08231306040518263ffffffff1660e01b815260040161094491906118db565b60206040518083038186803b15801561095c57600080fd5b505afa158015610970573d6000803e3d6000fd5b505050506040513d601f19601f820116820180604052508101906109949190611d54565b10156109d5576040517f08c379a00000000000000000000000000000000000000000000000000000000081526004016109cc90611dcd565b60405180910390fd5b600660009054906101000a900473ffffffffffffffffffffffffffffffffffffffff1673ffffffffffffffffffffffffffffffffffffffff1663a9059cbb33836040518363ffffffff1660e01b8152600401610a32929190611ded565b602060405180830381600087803b158015610a4c57600080fd5b505af1158015610a60573d6000803e3d6000fd5b505050506040513d601f19601f82011682018060405250810190610a849190611e4e565b5050565b60015481565b600660009054906101000a900473ffffffffffffffffffffffffffffffffffffffff1673ffffffffffffffffffffffffffffffffffffffff16639dc29fac33836040518363ffffffff1660e01b8152600401610aeb929190611ded565b600060405180830381600087803b158015610b0557600080fd5b505af1158015610b19573d6000803e3d6000fd5b5050505050565b610b286115a6565b606481118015610b38575060c881105b610b77576040517f08c379a0000000000000000000000000000000000000000000000000000000008152600401610b6e90611eed565b60405180910390fd5b8060018190555050565b60035481565b60055481565b610b956115a6565b610b9f6000611624565b565b81600660009054906101000a900473ffffffffffffffffffffffffffffffffffffffff1673ffffffffffffffffffffffffffffffffffffffff166370a08231336040518263ffffffff1660e01b8152600401610bfd91906118db565b60206040518083038186803b158015610c1557600080fd5b505afa158015610c29573d6000803e3d6000fd5b505050506040513d601f19601f82011682018060405250810190610c4d9190611d54565b1015610c8e576040517f08c379a0000000000000000000000000000000000000000000000000000000008152600401610c8590611dcd565b60405180910390fd5b6003548210158015610ca257506004548211155b610ce1576040517f08c379a0000000000000000000000000000000000000000000000000000000008152600401610cd890611b6a565b60405180910390fd5b606460015483610cf19190611c19565b610cfb9190611c73565b600660009054906101000a900473ffffffffffffffffffffffffffffffffffffffff1673ffffffffffffffffffffffffffffffffffffffff166370a08231306040518263ffffffff1660e01b8152600401610d5691906118db565b60206040518083038186803b158015610d6e57600080fd5b505afa158015610d82573d6000803e3d6000fd5b505050506040513d601f19601f82011682018060405250810190610da69190611d54565b1015610de7576040517f08c379a0000000000000000000000000000000000000000000000000000000008152600401610dde90611f59565b60405180910390fd5b6000811480610df65750600181145b610e35576040517f08c379a0000000000000000000000000000000000000000000000000000000008152600401610e2c90611fc5565b60405180910390fd5b81600660009054906101000a900473ffffffffffffffffffffffffffffffffffffffff1673ffffffffffffffffffffffffffffffffffffffff1663dd62ed3e33306040518363ffffffff1660e01b8152600401610e93929190611fe5565b60206040518083038186803b158015610eab57600080fd5b505afa158015610ebf573d6000803e3d6000fd5b505050506040513d601f19601f82011682018060405250810190610ee39190611d54565b1015610f24576040517f08c379a0000000000000000000000000000000000000000000000000000000008152600401610f1b9061205a565b60405180910390fd5b600660009054906101000a900473ffffffffffffffffffffffffffffffffffffffff1673ffffffffffffffffffffffffffffffffffffffff166323b872dd3330856040518463ffffffff1660e01b8152600401610f839392919061207a565b602060405180830381600087803b158015610f9d57600080fd5b505af1158015610fb1573d6000803e3d6000fd5b505050506040513d601f19601f82011682018060405250810190610fd59190611e4e565b5060006040518060c001604052803373ffffffffffffffffffffffffffffffffffffffff16815260200184815260200183815260200160008152602001600081526020016000600281111561102d5761102c6117a8565b5b815250905060006002436110419190611bb9565b90508281141561121e578082606001818152505060018260a00190600281111561106e5761106d6117a8565b5b90816002811115611082576110816117a8565b5b815250506064600154856110969190611c19565b6110a09190611c73565b826080018181525050600660009054906101000a900473ffffffffffffffffffffffffffffffffffffffff1673ffffffffffffffffffffffffffffffffffffffff1663a9059cbb836000015184608001516040518363ffffffff1660e01b815260040161110e929190611ded565b602060405180830381600087803b15801561112857600080fd5b505af115801561113c573d6000803e3d6000fd5b505050506040513d601f19601f820116820180604052508101906111609190611e4e565b508160076000600254815260200190815260200160002060008201518160000160006101000a81548173ffffffffffffffffffffffffffffffffffffffff021916908373ffffffffffffffffffffffffffffffffffffffff1602179055506020820151816001015560408201518160020155606082015181600301556080820151816004015560a08201518160050160006101000a81548160ff02191690836002811115611211576112106117a8565b5b021790555090505061133a565b8082606001818152505060028260a001906002811115611241576112406117a8565b5b90816002811115611255576112546117a8565b5b81525050600082608001818152505081602001516005600082825461127a9190611ca4565b925050819055508160076000600254815260200190815260200160002060008201518160000160006101000a81548173ffffffffffffffffffffffffffffffffffffffff021916908373ffffffffffffffffffffffffffffffffffffffff1602179055506020820151816001015560408201518160020155606082015181600301556080820151816004015560a08201518160050160006101000a81548160ff02191690836002811115611331576113306117a8565b5b02179055509050505b60016002600082825461134d9190611ca4565b925050819055508160a00151600281111561136b5761136a6117a8565b5b826000015173ffffffffffffffffffffffffffffffffffffffff167fd34f52a7b1f8fb6116e944d8c7d3b63e08814c36db58a673443de663e51314a584602001518560400151866060015187608001516040516113cb9493929190611cfa565b60405180910390a350505050565b60008060009054906101000a900473ffffffffffffffffffffffffffffffffffffffff16905090565b60045481565b600660009054906101000a900473ffffffffffffffffffffffffffffffffffffffff1673ffffffffffffffffffffffffffffffffffffffff166340c10f1933836040518363ffffffff1660e01b8152600401611465929190611ded565b600060405180830381600087803b15801561147f57600080fd5b505af1158015611493573d6000803e3d6000fd5b5050505050565b6114a26115a6565b8082106114e4576040517f08c379a00000000000000000000000000000000000000000000000000000000081526004016114db906120fd565b60405180910390fd5b80600481905550816003819055505050565b6114fe6115a6565b600073ffffffffffffffffffffffffffffffffffffffff168173ffffffffffffffffffffffffffffffffffffffff16141561156e576040517f08c379a00000000000000000000000000000000000000000000000000000000081526004016115659061218f565b60405180910390fd5b61157781611624565b50565b60025481565b600660009054906101000a900473ffffffffffffffffffffffffffffffffffffffff1681565b6115ae6116e8565b73ffffffffffffffffffffffffffffffffffffffff166115cc6113d9565b73ffffffffffffffffffffffffffffffffffffffff1614611622576040517f08c379a0000000000000000000000000000000000000000000000000000000008152600401611619906121fb565b60405180910390fd5b565b60008060009054906101000a900473ffffffffffffffffffffffffffffffffffffffff169050816000806101000a81548173ffffffffffffffffffffffffffffffffffffffff021916908373ffffffffffffffffffffffffffffffffffffffff1602179055508173ffffffffffffffffffffffffffffffffffffffff168173ffffffffffffffffffffffffffffffffffffffff167f8be0079c531659141344cd1fd0a4f28419497f9722a3daafe3b4186f6b6457e060405160405180910390a35050565b600033905090565b600080fd5b6000819050919050565b611708816116f5565b811461171357600080fd5b50565b600081359050611725816116ff565b92915050565b600060208284031215611741576117406116f0565b5b600061174f84828501611716565b91505092915050565b600073ffffffffffffffffffffffffffffffffffffffff82169050919050565b600061178382611758565b9050919050565b61179381611778565b82525050565b6117a2816116f5565b82525050565b7f4e487b7100000000000000000000000000000000000000000000000000000000600052602160045260246000fd5b600381106117e8576117e76117a8565b5b50565b60008190506117f9826117d7565b919050565b6000611809826117eb565b9050919050565b611819816117fe565b82525050565b600060c082019050611834600083018961178a565b6118416020830188611799565b61184e6040830187611799565b61185b6060830186611799565b6118686080830185611799565b61187560a0830184611810565b979650505050505050565b60006020820190506118956000830184611799565b92915050565b600080604083850312156118b2576118b16116f0565b5b60006118c085828601611716565b92505060206118d185828601611716565b9150509250929050565b60006020820190506118f0600083018461178a565b92915050565b6118ff81611778565b811461190a57600080fd5b50565b60008135905061191c816118f6565b92915050565b600060208284031215611938576119376116f0565b5b60006119468482850161190d565b91505092915050565b6000819050919050565b600061197461196f61196a84611758565b61194f565b611758565b9050919050565b600061198682611959565b9050919050565b60006119988261197b565b9050919050565b6119a88161198d565b82525050565b60006020820190506119c3600083018461199f565b92915050565b600082825260208201905092915050565b7f4465706f73697420736f6d652045746800000000000000000000000000000000600082015250565b6000611a106010836119c9565b9150611a1b826119da565b602082019050919050565b60006020820190508181036000830152611a3f81611a03565b9050919050565b7f57726f6e672063686f6963650000000000000000000000000000000000000000600082015250565b6000611a7c600c836119c9565b9150611a8782611a46565b602082019050919050565b60006020820190508181036000830152611aab81611a6f565b9050919050565b7f4e6f7420656e6f7567682066756e647320746f207072697a6500000000000000600082015250565b6000611ae86019836119c9565b9150611af382611ab2565b602082019050919050565b60006020820190508181036000830152611b1781611adb565b9050919050565b7f436f696e466c69703a206265742073686f756c6420626520696e2072616e6765600082015250565b6000611b546020836119c9565b9150611b5f82611b1e565b602082019050919050565b60006020820190508181036000830152611b8381611b47565b9050919050565b7f4e487b7100000000000000000000000000000000000000000000000000000000600052601260045260246000fd5b6000611bc4826116f5565b9150611bcf836116f5565b925082611bdf57611bde611b8a565b5b828206905092915050565b7f4e487b7100000000000000000000000000000000000000000000000000000000600052601160045260246000fd5b6000611c24826116f5565b9150611c2f836116f5565b9250817fffffffffffffffffffffffffffffffffffffffffffffffffffffffffffffffff0483118215151615611c6857611c67611bea565b5b828202905092915050565b6000611c7e826116f5565b9150611c89836116f5565b925082611c9957611c98611b8a565b5b828204905092915050565b6000611caf826116f5565b9150611cba836116f5565b9250827fffffffffffffffffffffffffffffffffffffffffffffffffffffffffffffffff03821115611cef57611cee611bea565b5b828201905092915050565b6000608082019050611d0f6000830187611799565b611d1c6020830186611799565b611d296040830185611799565b611d366060830184611799565b95945050505050565b600081519050611d4e816116ff565b92915050565b600060208284031215611d6a57611d696116f0565b5b6000611d7884828501611d3f565b91505092915050565b7f4e6f7420656e6f7567682066756e647300000000000000000000000000000000600082015250565b6000611db76010836119c9565b9150611dc282611d81565b602082019050919050565b60006020820190508181036000830152611de681611daa565b9050919050565b6000604082019050611e02600083018561178a565b611e0f6020830184611799565b9392505050565b60008115159050919050565b611e2b81611e16565b8114611e3657600080fd5b50565b600081519050611e4881611e22565b92915050565b600060208284031215611e6457611e636116f0565b5b6000611e7284828501611e39565b91505092915050565b7f53686f756c642062652067726561746572207468616e203130302c206c65737360008201527f207468616e203230300000000000000000000000000000000000000000000000602082015250565b6000611ed76029836119c9565b9150611ee282611e7b565b604082019050919050565b60006020820190508181036000830152611f0681611eca565b9050919050565b7f4e6f7420656e6f7567682066756e647320746f207072697a6520697400000000600082015250565b6000611f43601c836119c9565b9150611f4e82611f0d565b602082019050919050565b60006020820190508181036000830152611f7281611f36565b9050919050565b7f436f696e666c69703a2077726f6e672063686f69636500000000000000000000600082015250565b6000611faf6016836119c9565b9150611fba82611f79565b602082019050919050565b60006020820190508181036000830152611fde81611fa2565b9050919050565b6000604082019050611ffa600083018561178a565b612007602083018461178a565b9392505050565b7f4e6f7420656e6f75676820616c6c6f77616e6365000000000000000000000000600082015250565b60006120446014836119c9565b915061204f8261200e565b602082019050919050565b6000602082019050818103600083015261207381612037565b9050919050565b600060608201905061208f600083018661178a565b61209c602083018561178a565b6120a96040830184611799565b949350505050565b7f436f696e466c69703a20496e76616c69642046756e64733a0000000000000000600082015250565b60006120e76018836119c9565b91506120f2826120b1565b602082019050919050565b60006020820190508181036000830152612116816120da565b9050919050565b7f4f776e61626c653a206e6577206f776e657220697320746865207a65726f206160008201527f6464726573730000000000000000000000000000000000000000000000000000602082015250565b60006121796026836119c9565b91506121848261211d565b604082019050919050565b600060208201905081810360008301526121a88161216c565b9050919050565b7f4f776e61626c653a2063616c6c6572206973206e6f7420746865206f776e6572600082015250565b60006121e56020836119c9565b91506121f0826121af565b602082019050919050565b60006020820190508181036000830152612214816121d8565b905091905056fea2646970667358221220c6971d2f3df79da36f3c4a70254b16dcb4cec93603028568cc3a27b8a9be9cd464736f6c6343000809003360806040523480156200001157600080fd5b506040518060400160405280600981526020017f47616d65546f6b656e00000000000000000000000000000000000000000000008152506040518060400160405280600281526020017f4754000000000000000000000000000000000000000000000000000000000000815250816003908051906020019062000096929190620000b8565b508060049080519060200190620000af929190620000b8565b505050620001cd565b828054620000c69062000197565b90600052602060002090601f016020900481019282620000ea576000855562000136565b82601f106200010557805160ff191683800117855562000136565b8280016001018555821562000136579182015b828111156200013557825182559160200191906001019062000118565b5b50905062000145919062000149565b5090565b5b80821115620001645760008160009055506001016200014a565b5090565b7f4e487b7100000000000000000000000000000000000000000000000000000000600052602260045260246000fd5b60006002820490506001821680620001b057607f821691505b60208210811415620001c757620001c662000168565b5b50919050565b6117dd80620001dd6000396000f3fe608060405234801561001057600080fd5b50600436106100cf5760003560e01c806340c10f191161008c5780639dc29fac116100665780639dc29fac14610228578063a457c2d714610244578063a9059cbb14610274578063dd62ed3e146102a4576100cf565b806340c10f19146101be57806370a08231146101da57806395d89b411461020a576100cf565b806306fdde03146100d4578063095ea7b3146100f257806318160ddd1461012257806323b872dd14610140578063313ce56714610170578063395093511461018e575b600080fd5b6100dc6102d4565b6040516100e99190610ed3565b60405180910390f35b61010c60048036038101906101079190610f8e565b610366565b6040516101199190610fe9565b60405180910390f35b61012a610389565b6040516101379190611013565b60405180910390f35b61015a6004803603810190610155919061102e565b610393565b6040516101679190610fe9565b60405180910390f35b6101786103c2565b604051610185919061109d565b60405180910390f35b6101a860048036038101906101a39190610f8e565b6103cb565b6040516101b59190610fe9565b60405180910390f35b6101d860048036038101906101d39190610f8e565b610402565b005b6101f460048036038101906101ef91906110b8565b610410565b6040516102019190611013565b60405180910390f35b610212610458565b60405161021f9190610ed3565b60405180910390f35b610242600480360381019061023d9190610f8e565b6104ea565b005b61025e60048036038101906102599190610f8e565b6104f8565b60405161026b9190610fe9565b60405180910390f35b61028e60048036038101906102899190610f8e565b61056f565b60405161029b9190610fe9565b60405180910390f35b6102be60048036038101906102b991906110e5565b610592565b6040516102cb9190611013565b60405180910390f35b6060600380546102e390611154565b80601f016020809104026020016040519081016040528092919081815260200182805461030f90611154565b801561035c5780601f106103315761010080835404028352916020019161035c565b820191906000526020600020905b81548152906001019060200180831161033f57829003601f168201915b5050505050905090565b600080610371610619565b905061037e818585610621565b600191505092915050565b6000600254905090565b60008061039e610619565b90506103ab8582856107ec565b6103b6858585610878565b60019150509392505050565b60006012905090565b6000806103d6610619565b90506103f78185856103e88589610592565b6103f291906111b5565b610621565b600191505092915050565b61040c8282610af9565b5050565b60008060008373ffffffffffffffffffffffffffffffffffffffff1673ffffffffffffffffffffffffffffffffffffffff168152602001908152602001600020549050919050565b60606004805461046790611154565b80601f016020809104026020016040519081016040528092919081815260200182805461049390611154565b80156104e05780601f106104b5576101008083540402835291602001916104e0565b820191906000526020600020905b8154815290600101906020018083116104c357829003601f168201915b5050505050905090565b6104f48282610c59565b5050565b600080610503610619565b905060006105118286610592565b905083811015610556576040517f08c379a000000000000000000000000000000000000000000000000000000000815260040161054d9061127d565b60405180910390fd5b6105638286868403610621565b60019250505092915050565b60008061057a610619565b9050610587818585610878565b600191505092915050565b6000600160008473ffffffffffffffffffffffffffffffffffffffff1673ffffffffffffffffffffffffffffffffffffffff16815260200190815260200160002060008373ffffffffffffffffffffffffffffffffffffffff1673ffffffffffffffffffffffffffffffffffffffff16815260200190815260200160002054905092915050565b600033905090565b600073ffffffffffffffffffffffffffffffffffffffff168373ffffffffffffffffffffffffffffffffffffffff161415610691576040517f08c379a00000000000000000000000000000000000000000000000000000000081526004016106889061130f565b60405180910390fd5b600073ffffffffffffffffffffffffffffffffffffffff168273ffffffffffffffffffffffffffffffffffffffff161415610701576040517f08c379a00000000000000000000000000000000000000000000000000000000081526004016106f8906113a1565b60405180910390fd5b80600160008573ffffffffffffffffffffffffffffffffffffffff1673ffffffffffffffffffffffffffffffffffffffff16815260200190815260200160002060008473ffffffffffffffffffffffffffffffffffffffff1673ffffffffffffffffffffffffffffffffffffffff168152602001908152602001600020819055508173ffffffffffffffffffffffffffffffffffffffff168373ffffffffffffffffffffffffffffffffffffffff167f8c5be1e5ebec7d5bd14f71427d1e84f3dd0314c0f7b2291e5b200ac8c7c3b925836040516107df9190611013565b60405180910390a3505050565b60006107f88484610592565b90507fffffffffffffffffffffffffffffffffffffffffffffffffffffffffffffffff81146108725781811015610864576040517f08c379a000000000000000000000000000000000000000000000000000000000815260040161085b9061140d565b60405180910390fd5b6108718484848403610621565b5b50505050565b600073ffffffffffffffffffffffffffffffffffffffff168373ffffffffffffffffffffffffffffffffffffffff1614156108e8576040517f08c379a00000000000000000000000000000000000000000000000000000000081526004016108df9061149f565b60405180910390fd5b600073ffffffffffffffffffffffffffffffffffffffff168273ffffffffffffffffffffffffffffffffffffffff161415610958576040517f08c379a000000000000000000000000000000000000000000000000000000000815260040161094f90611531565b60405180910390fd5b610963838383610e30565b60008060008573ffffffffffffffffffffffffffffffffffffffff1673ffffffffffffffffffffffffffffffffffffffff168152602001908152602001600020549050818110156109e9576040517f08c379a00000000000000000000000000000000000000000000000000000000081526004016109e0906115c3565b60405180910390fd5b8181036000808673ffffffffffffffffffffffffffffffffffffffff1673ffffffffffffffffffffffffffffffffffffffff16815260200190815260200160002081905550816000808573ffffffffffffffffffffffffffffffffffffffff1673ffffffffffffffffffffffffffffffffffffffff1681526020019081526020016000206000828254610a7c91906111b5565b925050819055508273ffffffffffffffffffffffffffffffffffffffff168473ffffffffffffffffffffffffffffffffffffffff167fddf252ad1be2c89b69c2b068fc378daa952ba7f163c4a11628f55a4df523b3ef84604051610ae09190611013565b60405180910390a3610af3848484610e35565b50505050565b600073ffffffffffffffffffffffffffffffffffffffff168273ffffffffffffffffffffffffffffffffffffffff161415610b69576040517f08c379a0000000000000000000000000000000000000000000000000000000008152600401610b609061162f565b60405180910390fd5b610b7560008383610e30565b8060026000828254610b8791906111b5565b92505081905550806000808473ffffffffffffffffffffffffffffffffffffffff1673ffffffffffffffffffffffffffffffffffffffff1681526020019081526020016000206000828254610bdc91906111b5565b925050819055508173ffffffffffffffffffffffffffffffffffffffff16600073ffffffffffffffffffffffffffffffffffffffff167fddf252ad1be2c89b69c2b068fc378daa952ba7f163c4a11628f55a4df523b3ef83604051610c419190611013565b60405180910390a3610c5560008383610e35565b5050565b600073ffffffffffffffffffffffffffffffffffffffff168273ffffffffffffffffffffffffffffffffffffffff161415610cc9576040517f08c379a0000000000000000000000000000000000000000000000000000000008152600401610cc0906116c1565b60405180910390fd5b610cd582600083610e30565b60008060008473ffffffffffffffffffffffffffffffffffffffff1673ffffffffffffffffffffffffffffffffffffffff16815260200190815260200160002054905081811015610d5b576040517f08c379a0000000000000000000000000000000000000000000000000000000008152600401610d5290611753565b60405180910390fd5b8181036000808573ffffffffffffffffffffffffffffffffffffffff1673ffffffffffffffffffffffffffffffffffffffff168152602001908152602001600020819055508160026000828254610db29190611773565b92505081905550600073ffffffffffffffffffffffffffffffffffffffff168373ffffffffffffffffffffffffffffffffffffffff167fddf252ad1be2c89b69c2b068fc378daa952ba7f163c4a11628f55a4df523b3ef84604051610e179190611013565b60405180910390a3610e2b83600084610e35565b505050565b505050565b505050565b600081519050919050565b600082825260208201905092915050565b60005b83811015610e74578082015181840152602081019050610e59565b83811115610e83576000848401525b50505050565b6000601f19601f8301169050919050565b6000610ea582610e3a565b610eaf8185610e45565b9350610ebf818560208601610e56565b610ec881610e89565b840191505092915050565b60006020820190508181036000830152610eed8184610e9a565b905092915050565b600080fd5b600073ffffffffffffffffffffffffffffffffffffffff82169050919050565b6000610f2582610efa565b9050919050565b610f3581610f1a565b8114610f4057600080fd5b50565b600081359050610f5281610f2c565b92915050565b6000819050919050565b610f6b81610f58565b8114610f7657600080fd5b50565b600081359050610f8881610f62565b92915050565b60008060408385031215610fa557610fa4610ef5565b5b6000610fb385828601610f43565b9250506020610fc485828601610f79565b9150509250929050565b60008115159050919050565b610fe381610fce565b82525050565b6000602082019050610ffe6000830184610fda565b92915050565b61100d81610f58565b82525050565b60006020820190506110286000830184611004565b92915050565b60008060006060848603121561104757611046610ef5565b5b600061105586828701610f43565b935050602061106686828701610f43565b925050604061107786828701610f79565b9150509250925092565b600060ff82169050919050565b61109781611081565b82525050565b60006020820190506110b2600083018461108e565b92915050565b6000602082840312156110ce576110cd610ef5565b5b60006110dc84828501610f43565b91505092915050565b600080604083850312156110fc576110fb610ef5565b5b600061110a85828601610f43565b925050602061111b85828601610f43565b9150509250929050565b7f4e487b7100000000000000000000000000000000000000000000000000000000600052602260045260246000fd5b6000600282049050600182168061116c57607f821691505b602082108114156111805761117f611125565b5b50919050565b7f4e487b7100000000000000000000000000000000000000000000000000000000600052601160045260246000fd5b60006111c082610f58565b91506111cb83610f58565b9250827fffffffffffffffffffffffffffffffffffffffffffffffffffffffffffffffff03821115611200576111ff611186565b5b828201905092915050565b7f45524332303a2064656372656173656420616c6c6f77616e63652062656c6f7760008201527f207a65726f000000000000000000000000000000000000000000000000000000602082015250565b6000611267602583610e45565b91506112728261120b565b604082019050919050565b600060208201905081810360008301526112968161125a565b9050919050565b7f45524332303a20617070726f76652066726f6d20746865207a65726f2061646460008201527f7265737300000000000000000000000000000000000000000000000000000000602082015250565b60006112f9602483610e45565b91506113048261129d565b604082019050919050565b60006020820190508181036000830152611328816112ec565b9050919050565b7f45524332303a20617070726f766520746f20746865207a65726f20616464726560008201527f7373000000000000000000000000000000000000000000000000000000000000602082015250565b600061138b602283610e45565b91506113968261132f565b604082019050919050565b600060208201905081810360008301526113ba8161137e565b9050919050565b7f45524332303a20696e73756666696369656e7420616c6c6f77616e6365000000600082015250565b60006113f7601d83610e45565b9150611402826113c1565b602082019050919050565b60006020820190508181036000830152611426816113ea565b9050919050565b7f45524332303a207472616e736665722066726f6d20746865207a65726f20616460008201527f6472657373000000000000000000000000000000000000000000000000000000602082015250565b6000611489602583610e45565b91506114948261142d565b604082019050919050565b600060208201905081810360008301526114b88161147c565b9050919050565b7f45524332303a207472616e7366657220746f20746865207a65726f206164647260008201527f6573730000000000000000000000000000000000000000000000000000000000602082015250565b600061151b602383610e45565b9150611526826114bf565b604082019050919050565b6000602082019050818103600083015261154a8161150e565b9050919050565b7f45524332303a207472616e7366657220616d6f756e742065786365656473206260008201527f616c616e63650000000000000000000000000000000000000000000000000000602082015250565b60006115ad602683610e45565b91506115b882611551565b604082019050919050565b600060208201905081810360008301526115dc816115a0565b9050919050565b7f45524332303a206d696e7420746f20746865207a65726f206164647265737300600082015250565b6000611619601f83610e45565b9150611624826115e3565b602082019050919050565b600060208201905081810360008301526116488161160c565b9050919050565b7f45524332303a206275726e2066726f6d20746865207a65726f2061646472657360008201527f7300000000000000000000000000000000000000000000000000000000000000602082015250565b60006116ab602183610e45565b91506116b68261164f565b604082019050919050565b600060208201905081810360008301526116da8161169e565b9050919050565b7f45524332303a206275726e20616d6f756e7420657863656564732062616c616e60008201527f6365000000000000000000000000000000000000000000000000000000000000602082015250565b600061173d602283610e45565b9150611748826116e1565b604082019050919050565b6000602082019050818103600083015261176c81611730565b9050919050565b600061177e82610f58565b915061178983610f58565b92508282101561179c5761179b611186565b5b82820390509291505056fea2646970667358221220f6f3f5ebe261237b7b518b4a6c42b87231a855e32c30d53147df2d0fb47a9ffa64736f6c63430008090033",
  "devdoc": {
    "kind": "dev",
    "methods": {
      "owner()": {
        "details": "Returns the address of the current owner."
      },
      "renounceOwnership()": {
        "details": "Leaves the contract without owner. It will not be possible to call `onlyOwner` functions anymore. Can only be called by the current owner. NOTE: Renouncing ownership will leave the contract without an owner, thereby removing any functionality that is only available to the owner."
      },
      "transferOwnership(address)": {
        "details": "Transfers ownership of the contract to a new account (`newOwner`). Can only be called by the current owner."
      }
    },
    "version": 1
  },
  "userdoc": {
    "kind": "user",
    "methods": {},
    "version": 1
  },
  "storageLayout": {
    "storage": [
      {
        "astId": 7,
        "contract": "contracts/CoinFlip.sol:CoinFlip",
        "label": "_owner",
        "offset": 0,
        "slot": "0",
        "type": "t_address"
      },
      {
        "astId": 850,
        "contract": "contracts/CoinFlip.sol:CoinFlip",
        "label": "coef",
        "offset": 0,
        "slot": "1",
        "type": "t_uint256"
      },
      {
        "astId": 852,
        "contract": "contracts/CoinFlip.sol:CoinFlip",
        "label": "totalGamesCount",
        "offset": 0,
        "slot": "2",
        "type": "t_uint256"
      },
      {
        "astId": 854,
        "contract": "contracts/CoinFlip.sol:CoinFlip",
        "label": "minDepositAmount",
        "offset": 0,
        "slot": "3",
        "type": "t_uint256"
      },
      {
        "astId": 856,
        "contract": "contracts/CoinFlip.sol:CoinFlip",
        "label": "maxDepositAmount",
        "offset": 0,
        "slot": "4",
        "type": "t_uint256"
      },
      {
        "astId": 858,
        "contract": "contracts/CoinFlip.sol:CoinFlip",
        "label": "profit",
        "offset": 0,
        "slot": "5",
        "type": "t_uint256"
      },
      {
        "astId": 861,
        "contract": "contracts/CoinFlip.sol:CoinFlip",
        "label": "token",
        "offset": 0,
        "slot": "6",
        "type": "t_contract(GameToken)1415"
      },
      {
        "astId": 866,
        "contract": "contracts/CoinFlip.sol:CoinFlip",
        "label": "games",
        "offset": 0,
        "slot": "7",
        "type": "t_mapping(t_uint256,t_struct(Game)848_storage)"
      }
    ],
    "types": {
      "t_address": {
        "encoding": "inplace",
        "label": "address",
        "numberOfBytes": "20"
      },
      "t_contract(GameToken)1415": {
        "encoding": "inplace",
        "label": "contract GameToken",
        "numberOfBytes": "20"
      },
      "t_enum(Status)834": {
        "encoding": "inplace",
        "label": "enum CoinFlip.Status",
        "numberOfBytes": "1"
      },
      "t_mapping(t_uint256,t_struct(Game)848_storage)": {
        "encoding": "mapping",
        "key": "t_uint256",
        "label": "mapping(uint256 => struct CoinFlip.Game)",
        "numberOfBytes": "32",
        "value": "t_struct(Game)848_storage"
      },
      "t_struct(Game)848_storage": {
        "encoding": "inplace",
        "label": "struct CoinFlip.Game",
        "members": [
          {
            "astId": 836,
            "contract": "contracts/CoinFlip.sol:CoinFlip",
            "label": "player",
            "offset": 0,
            "slot": "0",
            "type": "t_address"
          },
          {
            "astId": 838,
            "contract": "contracts/CoinFlip.sol:CoinFlip",
            "label": "depositAmount",
            "offset": 0,
            "slot": "1",
            "type": "t_uint256"
          },
          {
            "astId": 840,
            "contract": "contracts/CoinFlip.sol:CoinFlip",
            "label": "choice",
            "offset": 0,
            "slot": "2",
            "type": "t_uint256"
          },
          {
            "astId": 842,
            "contract": "contracts/CoinFlip.sol:CoinFlip",
            "label": "result",
            "offset": 0,
            "slot": "3",
            "type": "t_uint256"
          },
          {
            "astId": 844,
            "contract": "contracts/CoinFlip.sol:CoinFlip",
            "label": "prize",
            "offset": 0,
            "slot": "4",
            "type": "t_uint256"
          },
          {
            "astId": 847,
            "contract": "contracts/CoinFlip.sol:CoinFlip",
            "label": "status",
            "offset": 0,
            "slot": "5",
            "type": "t_enum(Status)834"
          }
        ],
        "numberOfBytes": "192"
      },
      "t_uint256": {
        "encoding": "inplace",
        "label": "uint256",
        "numberOfBytes": "32"
      }
    }
  }
}